:020000040000FA
:060000000A128A11FA2F1A
:100EA400F0007008831203139300080083160313E1
:100EB400141C5D2F5E2F582F08000A128A11582720
:100EC4000A128A118312031313080800F30083160D
:100ED400031387120716731D702F712F752F720855
:100EE40094008715792F7008720494008711730891
:100EF40071048312031394000800703083160313E3
:100F04008F048F110F118F100F148316031788018C
:100F1400890183160313881008118501860188014D
:100F240083120313860188018B170B178C11831608
:100F340003138C158516F001F101F20120300A1219
:100F44008A1168270A128A1108000A128A117F2757
:100F54000A128A118312031388102730F500F53022
:100F6400F400F40BB32FF50BB32F01300A128A11DE
:100F740052270A128A110A128A115F270A128A1149
:100F8400F4007408F70077088312031386002730EF
:100F9400F500F530F400F40BCD2FF50BCD2F8312B3
:100FA4000313881488102730F500F530F400F40B8F
:100FB400D92FF50BD92F02300A128A1152270A129F
:100FC4008A110A128A115F270A128A11F40074081E
:100FD400F6002730F500F530F400F40BEF2FF50B95
:100FE400EF2F831203138814AC2F0A128A110028DE
:0C0FF400F601F70183010A128A11A72FF1
:04400E00D4E0FFFFFC
:00000001FF
