:020000040000FA
:060000000A128A110C280F
:10000800FE00030EF0000A08F1000A128A11842883
:100018000A128A110F28F401F501F60183010A1268
:100028008A1116280A128A1158200A128A110A12ED
:100038008A1140200A128A11831203130510C7304F
:10004800F3002628F30B252829282A2801300A122C
:100058008A1196200A128A110A128A1170200A122D
:100068008A11F3007308F5007508831203138600DC
:1000780020280A128A110C288316031314138312DA
:100088000313141283160313941383120313941681
:100098008316031307168712871183120313140894
:1000A800F03902389400080083160313860183127E
:1000B800031386018316031305100F088F39603860
:1000C8008F008F110F118F100F148B170B178C15B2
:1000D800831203130510080083160313141C7528D4
:1000E80076288228831203131308F2007208F60098
:1000F80083160313141083120313141376080800CD
:10010800831203138C1D89288A288F2813088600D8
:1001180083160313141071088A00700E8300FE0EF4
:100128007E0E0900F2007208831203139300080080
:04400E00D4E0FFFFFC
:00000001FF
