:020000040000FA
:060000000A128A11F92F1B
:100B6C00F00070088312031393000800831603131C
:100B7C00141CC12DC22DBC2D0800831203138C1E16
:100B8C00C82DC92DCA2D1A0808000A128A11BC25B5
:100B9C000A128A118312031313080800F00083163B
:100BAC000313981CDA2DDB2DD52D7008831203133B
:100BBC0099000800F3008316031387120716731DA0
:100BCC00E82DE92DED2D720894008715F12D700894
:100BDC007204940087117308710483120313940038
:100BEC0008008316031385018601870107168717F2
:100BFC00880188108316031788018901F001F1011F
:100C0C00F20120300A128A11E0250A128A1108001A
:100C1C00F200462E831603130F128F120F13682E39
:100C2C00831603130F168F120F13682E83160313DC
:100C3C000F128F160F13682E831603130F168F16B1
:100C4C000F13682E831603130F128F120F17682EB3
:100C5C00831603130F168F120F17682E83160313A8
:100C6C000F128F160F17682E831603130F168F167D
:100C7C000F17682E831603130F128F160F17682E7B
:100C8C007208F000F1017108003A03194E2E402E43
:100C9C007008003A0319102E013A0319162E033A64
:100CAC0003191C2E013A0319222E073A0319282E78
:100CBC00013A03192E2E033A0319342E013A031963
:100CCC003A2E402E0F140800831203132608AA0094
:100CDC002708AB002808AC002908AD00043003102D
:100CEC00AA0DAB0DAC0DAD0DFF3E031D752E2D08E1
:100CFC00F3002C08F2002B08F1002A08F00026085B
:100D0C00AE002708AF002808B0002908B100043055
:100D1C000310AE0DAF0DB00DB10DFF3E031D8E2EA9
:100D2C000030B2001230B3007A30B4000030B5009D
:100D3C002E08B2022F08031C2F0FA52EA62EB302CD
:100D4C003008031C300FAB2EAC2EB4023108031C40
:100D5C00310FB12EB22EB5023508F7003408F6006B
:100D6C003308F5003208F4000A128A115C270A12C3
:100D7C008A11700883160313990018151812831220
:100D8C000313981718168316031398161813831247
:100D9C000313181308000A128A11F7250A128A1174
:100DAC0007300A128A110E260A128A110030831299
:100DBC000313A9000030A8002530A7008030A6003E
:100DCC000A128A116A260A128A11831203138501E8
:100DDC008601870188018312031388100330FA00FF
:100DEC009730F900F90BF82EFA0BF82EFD2E013086
:100DFC000A128A11B6250A128A110A128A11CB25F7
:100E0C000A128A11F9007908FD000330FA009730B4
:100E1C00F900F90B0F2FFA0B0F2F142F831203135A
:100E2C00881488100330FA009730F900F90B1C2F46
:100E3C00FA0B1C2F212F02300A128A11B6250A1226
:100E4C008A110A128A11CB250A128A11F900790823
:100E5C00FC000330FA009730F900F90B332FFA0B32
:100E6C00332F382F8312031388140A128A11C325C7
:100E7C000A128A118312031386007D080A128A1142
:100E8C00D4250A128A110D30FA00FB30F900F90B47
:100E9C004D2FFA0B4D2F522F7C080A128A11D42594
:100EAC000A128A11F12E0A128A11002883120313D6
:100EBC00A101F31F622F632F702FF009F109F209C2
:100ECC00F309F00A0319F10A0319F20A0319F30AD8
:100EDC00A101A10AF71F732F742F832FF409F509B1
:100EEC00F609F709F40A0319F50A0319F60A0319A6
:100EFC00F70A0130F8007808A1060030A500003090
:100F0C00A4000030A3000030A20073087204710426
:100F1C0070040319922F932FE02FA001A00AA32F86
:100F2C000130F8000310F00DF10DF20DF30DF80B7C
:100F3C00982F0130F8007808A007F31FA62FA72FD1
:100F4C00962F0130F8000310A20DA30DA40DA50DD2
:100F5C00F80BA92F73087702031DBE2F72087602B7
:100F6C00031DBE2F71087502031DBE2F700874027D
:100F7C00031CC12FC22FD12F7008F4027108031C5F
:100F8C00710FF5027208031C720FF6027308031C32
:100F9C00730FF702221401300310F30CF20CF10C56
:100FAC00F00CFF3E031DD22F0130A002031DDF2FDA
:100FBC00E02FA72F21080319E42FE52FF02FA2090A
:100FCC00A309A409A509A20A0319A30A0319A40ACF
:100FDC000319A50A2508F3002408F2002308F100E0
:100FEC002208F0000800FB01FC01FD0183010A123C
:040FFC008A11D12E57
:04400E00D4E0FFFFFC
:00000001FF
