:020000040000FA
:060000000A128A110C280F
:10000800FE00030EF1000A08F2000A128A114C28B9
:100018000A128A110F28F701F80183010A128A11BE
:10002800B028831203131F139F171F14831603137B
:100038009F131F129F120D30F400FB30F300F30BD7
:100048002328F40B23282828C330831203139F0581
:100058001F140C139F141E08F3007308F800780887
:1000680086002730F400F530F300F30B3928F40B41
:100078003928831203131F08C3390C389F001F1433
:100088000C139F141E08F3007308F7001F280800BC
:100098000A128A11C6200A128A11831203138800D1
:1000A8008C1D5728582874280803031D5C285D28D0
:1000B800632878080A128A11D6200A128A11023097
:1000C800831203130806031D6A286B287128770812
:1000D8000A128A11D6200A128A11831203138C116C
:1000E80072088A00710E8300FE0E7E0E09007030C1
:1000F800831603138F048F110F118F100F148601AD
:100108008801881083120313860188018B170B1747
:100118008C11831603138C15851609308500093058
:1001280083160317880089010800F6008316031355
:1001380087120716761DA128A228A62875089400FC
:100148008715AA2873087504940087117608740423
:1001580083120313940008000A128A117B200A12E2
:100168008A11F301F401F50124300A128A11992049
:100178000A128A110A128A1115200A128A110A1201
:100188008A110C280A128A11CF200A128A118312A6
:1001980003131308080083160313141CD428D52846
:1001A800CF280800F000700883120313930008009A
:04400E00D4E0FFFFFC
:00000001FF
