:020000040000FA
:060000000A128A11FA2F1A
:100DA000F0007008831203139300080083160313E6
:100DB000141CDB2EDC2ED62E08000A128A11D62631
:100DC0000A128A1183120313130808000A128A11E7
:100DD00010270A128A1107300A128A112A270A12CA
:100DE0008A110A128A1186270A128A110A128A1196
:100DF0000028F3008316031387120716731D012FB3
:100E0000022F062F7208940087150A2F70087204AB
:100E1000940087117308710483120313940008006F
:100E20000930831603138500860108308700880186
:100E3000093083160317880089018316031385166A
:100E4000F001F101F20124300A128A11F9260A1286
:100E50008A110800F200622F831603130F128F12FB
:100E60000F13842F831603130F168F120F13842F63
:100E7000831603130F128F160F13842F8316031379
:100E80000F168F160F13842F831603130F128F1252
:100E90000F17842F831603130F168F120F17842F2B
:100EA000831603130F128F160F17842F8316031345
:100EB0000F168F160F17842F831603130F128F161A
:100EC0000F17842F7208F000F1017108003A03191E
:100ED0006A2F5C2F7008003A03192C2F013A03196E
:100EE000322F033A0319382F013A03193E2F073ADC
:100EF0000319442F013A03194A2F033A0319502FBB
:100F0000013A0319562F5C2F0F14080083120313A4
:100F10001F139F171F14831603139F131F129F1273
:100F20008312031385018601870188010A128A1141
:100F3000DD260A128A118312031388000330F2009F
:100F40009730F100F10BA22FF20BA22FA72F8312E3
:100F500003130803031DAD2FAE2FCC2F1F119F11BC
:100F60001F129F12EF30F100B52FF10BB42FB82FE5
:100F7000B92F831203131F140C139F149F18C12F32
:100F8000C22FBE2F1E08F1007108F50075080A1265
:100F90008A11D0260A128A11EF30F100CF2FF10BFF
:100FA000CE2FD22FD32F0230831203130806031D36
:100FB000DA2FDB2F962F1F159F151F129F12EF3070
:100FC000F100E22FF10BE12FE52FE62F831203133F
:100FD0000C139F149F18ED2FEE2FEA2F1E08F1001F
:100FE0007108F40074080A128A11D0260A128A11B4
:100FF000962F0800F401F50183010A128A11E62EEA
:04400E00D4E0FFFFFC
:00000001FF
