:020000040000FA
:060000000A128A110C280F
:10000800FE00030EF2000A08F3000A128A111628ED
:100018000A128A110F28F501F601F70183010A1265
:100028008A118028831203138C1D1B281C28322850
:100038000A128A116B200A128A118312031388008C
:100048000803031D282829282F2876080A128A1150
:10005800A3200A128A11831203138C1173088A00D1
:10006800720E8300FE0E7E0E0900831203131F1307
:100078009F171F14831603139F131F129F12C73055
:10008800F4004628F40B452849284A28C33083122F
:1000980003139F051F149F140C131E088600432882
:1000A8000800831603138601051485150F088F3978
:1000B80060388F008F110F118F100F148B170B17CB
:1000C8008C150930831603178800890108008316E8
:1000D8000313141C702871287F2883120313130834
:1000E800F0007008F1008316031314108312031331
:1000F8008C111413710808000A128A1155200A126B
:100108008A110A128A1192200A128A110A128A1175
:1001180039200A128A110A128A110C288312031331
:100128001408F0390438940094161416831603132F
:100138001413941307168712871585160800F00004
:0A01480070088312031393000800EF
:04400E00D4E0FFFFFC
:00000001FF
